:020000040800F2
:10000000A81A002061020008F329000865280008EA
:10001000F1290008AD160008D52E000800000000E8
:10002000000000000000000000000000352A000869
:10003000AF16000800000000F5290008372A000864
:100040007B0200087B0200087B0200087B0200089C
:100050007B0200087B0200087B0200087B0200088C
:100060007B0200087B0200087B0200087B0200087C
:100070007B0200087B0200087B0200087B0200086C
:100080007B0200087B0200087B0200087B0200085C
:100090007B0200087B0200087B0200087B0200084C
:1000A0007B0200087B0200087B0200087B0200083C
:1000B0007B020008DD2A0008E92A00087B0200080C
:1000C0007B0200087B0200087B0200087B0200081C
:1000D0007B020008C92E00087B0200087B02000892
:1000E0007B0200087B0200087B0200087B020008FC
:1000F0007B0200087B0200087B0200087B020008EC
:100100007B0200087B0200087B0200087B020008DB
:100110007B0200087B0200087B0200087B020008CB
:100120007B0200087B0200087B0200087B020008BB
:100130007B0200087B0200087B0200087B020008AB
:100140007B0200087B0200087B0200087B0200089B
:100150007B0200087B0200087B0200087B0200088B
:100160007B0200087B0200087B0200087B0200087B
:100170007B0200087B0200087B02000800000000F0
:100180007B0200087B0200084B1C012B98BF7047C4
:100190002DE9F003911C9B08B1F80480B1F802909E
:1001A0000A8831F802CC8044814402448444D9F85E
:1001B0000070D8F800601568DCF80040C9F80060ED
:1001C000C8F80070CCF800501460D9F80470D8F862
:1001D00004605568DCF80440C9F80460C8F804708D
:1001E000CCF80450546008315B1ED5D1BDE8F00353
:1001F00070474B1C012B98BF70472DE9F003911CF1
:100200009B08B1F80480B1F802900A8831F802CC5A
:1002100000EB580800EB590900EB520200EB5C0CB4
:10022000D9F80070D8F800601568DCF80040C9F80B
:100230000060C8F80070CCF80050146008315B1EF4
:10024000DFD1BDE8F0037047DFF810D001F01CFAF1
:1002500000480047653B0008AFF30080A81A002063
:100260000648804706480047FEE7FEE7FEE7FEE750
:10027000FEE7FEE7FEE7FEE7FEE7FEE7C12A00082D
:10028000490200089FED3D0A5FEA920C57D000BF7B
:10029000D0ED000A90ED011A0B1D60EEA00A0830A7
:1002A00041EE010AF5EEC00AF1EE10FAA6BFB1EE7A
:1002B000E01A81ED001A81ED000AD0ED000A90ED00
:1002C000011A191D60EEA00A083041EE010AF5EE90
:1002D000C00AF1EE10FAA6BFB1EEE01A83ED001AE3
:1002E00083ED000AD0ED000A90ED011A0B1D60EEBF
:1002F000A00A083041EE010AF5EEC00AF1EE10FA4C
:10030000A6BFB1EEE01A81ED001A81ED000A90ED72
:10031000001AD0ED010A191D21EE011A083000EE75
:10032000A01AB5EEC01AF1EE10FAA6BFF1EEC10A9E
:10033000C3ED000A83ED000ABCF1010CA8D112F054
:10034000030208BF704700BFD0ED000A90ED011A0C
:100350000B4660EEA00A091D083041EE010AF5EED9
:10036000C00AF1EE10FAA6BFB1EEE01A83ED001A52
:1003700083ED000A521EE7D1704700000000000024
:100380002DE9F04106462DED028B8C4600887368FE
:1003900001EB80044508274601EB850004EB85024C
:1003A0005FEA95087DD000BFD1ED003AD4ED001A88
:1003B00091ED012A94ED013A73EEA16A91ED024AA2
:1003C00091ED031AD4ED022AD4ED035A90ED008A80
:1003D00090ED017A90ED020A90ED036A92ED005AD9
:1003E000D2ED014AD2ED027AD2ED030AC1ED006AE4
:1003F00072EE036A73EEE13A74EEC71AC1ED016A58
:1004000074EE226A74EE622A37EEC04AC1ED026AC7
:1004100071EE256AC1ED036A72EE436A31EE652A18
:1004200038EE051A35EE483A80ED001A37EE241AF8
:1004300080ED011A30EE271A80ED021A36EE201AEE
:1004400080ED031A30EEC61A93ED000AD3ED010ACF
:1004500063EE804A26EEA05A66EE805A63EEA03A1A
:1004600074EE854A75EEE33AC4ED004A63EE204A25
:10047000C4ED013A61EE803A61EEA00A23EE000A73
:1004800074EEE31A30EE800AC2ED001A82ED010A22
:1004900093ED020AD3ED030A62EE803A22EE203A8F
:1004A00000E024E062EEA01A22EE002A73EE832A16
:1004B0001030103172EE611AC4ED022A24EE202AA7
:1004C000C4ED031A61EE001A61EE200A24EE000A60
:1004D000103332EE611A103430EE800A82ED021AC7
:1004E00082ED030A1032B8F101087FF45DAF2946AE
:1004F00002236046726800F041FB72682946BDEC39
:10050000028B3846BDE8F041022300F037BB2DE9ED
:10051000F34F2DED048B87B00B980088470801EB53
:10052000870000EB870606EB8705CDE90056DDF86E
:100530002C80A5F1040C0CEB8703CDE902014FEAF6
:100540005709D8F804800427CDE90497D1ED000AB3
:1005500096ED000A90ED011A95ED013A70EE802AB1
:1005600070EEC03AD1ED010A96ED010A041F321F68
:1005700030EE802A70EEC01A31EE230AD0ED000A68
:1005800032EE415A33EEC11A30EE434A71EEE04A80
:1005900095ED000A70EEA11A35EE435A74EE805ABA
:1005A00072EEE04A70EEA20A71EEC01A31EE031A42
:1005B00074EEC04A30EE800A062708F1080A81ED81
:1005C000000A90ED010AD5ED010A08F1100B30EE9A
:1005D000020A08F1180830EE200A81ED010A80EDC8
:1005E000004AC0ED015AC6ED004A86ED015A85ED7C
:1005F000001AC5ED011ADDF81090083008310835F1
:100600000836A9F102095FEA590900F0078100BF25
:10061000D1ED000A96ED000AD0ED011AD5ED014AA0
:1006200030EE802A30EEC05AD1ED010A96ED010A73
:1006300070EE802A30EEC01A31EE850AD5ED000A40
:1006400030EE644A90ED000A31EE403A30EE011A85
:1006500073EE205A32EE403A30EE020A31EE601A62
:1006600073EE603A30EE200A32EEE13A75EE611A2E
:1006700081ED000A90ED010AD5ED010A33EE643AEE
:1006800030EE220A71EEA41A30EE200A81ED010A42
:10069000D4ED002ADCED004A54ED010A1CED010AFC
:1006A00032EEA47A32EEE49A72EEE42A52ED018A36
:1006B00070EE807A30EEC02A72EEE82AD2ED000A9F
:1006C00093ED000A13ED018A30EEC05A72EE886A8B
:1006D00077EEE82A35EE026A32EEC85A77EE602AE3
:1006E00072EEC04A70EEC02A70EE870A72EEC22A1D
:1006F00030EE800A38EE682A84ED000A12ED010A15
:1007000053ED010A32EE492A30EE270A30EE200A74
:1007100004ED010A9AED000ADAED010A64EE007AAE
:1007200025EEA07A65EE805A24EE204A37EE877ACD
:1007300035EEC44A80ED007A80ED014A26EEA04AEB
:1007400066EE005A66EE200A26EE800A083034EE85
:10075000654A083130EE800A82ED004A083C02ED1D
:10076000010A9BED000ADBED010ADDF814E023EE3F
:10077000804A63EE205A23EE003A63EEA03A083A2C
:1007800034EE254A0BEB8E0B33EE633A86ED004ACE
:100790000AF1080A86ED013AB1EE643A083663EED2
:1007A000003A25EE203A25EE000A64EEA00A33EE68
:1007B000C33A30EEC00A8CED003A0CED010A98ED18
:1007C000000AD8ED010A08EB870861EE803A21EEB5
:1007D000203A21EE001A61EEA01AACF1080C33EEBB
:1007E000833A31EE611A85ED003A62EE801A85EDAA
:1007F000011A22EE201A62EEA00A22EE000A083543
:1008000031EE611A30EE800A83ED001A03ED010A21
:10081000083BB9F101097FF4FBAE00BFD1ED000A3E
:1008200096ED000A91ED011AD0ED015A30EE802AC2
:1008300070EEC00A96ED010A95ED015A042371EE9F
:10084000001A71EE404A35EEA00A90ED001A31EE22
:10085000E54A70EEE50A30EE453A95ED000A34EED1
:10086000454A30EE855A74EEC12A72EE413A71EE75
:10087000240A31EE021A72EE802A73EEC03A70EE4C
:10088000C00A31EE000A81ED000A90ED010A95EDF3
:10089000011A30EE210A30EE010A81ED010A9AEDCB
:1008A000000A9AED011A63EE001A22EE812A22EE66
:1008B000800A23EE011A71EE821A30EE410AC0ED71
:1008C000001A80ED010A9BED000A9BED011A63EE10
:1008D000801A24EE012A24EE000A23EE811A71EE1A
:1008E000821A30EE410AC6ED001A86ED010A98ED33
:1008F000010A98ED001A60EE801A25EE012A60EEDA
:10090000810A25EE000A32EE211A30EEC00A85ED8A
:10091000001A85ED010A0B984268DDE9030100F039
:100920002DF90B98042304994268029800F026F9E7
:100930000B98042304994268019800F01FF90B9862
:10094000049904234268009807B0BDEC048B02B000
:10095000BDE8F04F00F012B92DE9F0410488984647
:1009600017460D460646012A20D1281DF4B1A0F1F4
:10097000080114F0010F06D091ED020AB1EE400A11
:1009800081ED020A08315FEA540C0FD091ED020AA2
:10099000B1EE400A81ED020A91ED040AB1EE400A7F
:1009A00081ED040A1031BCF1010CEFD1B4F5807F68
:1009B0001BD008DC102C13D0202C16D0402C19D0C2
:1009C000802C0DD01CE0B4F5007F13D0B4F5806FFF
:1009D00006D0B4F5006F08D0B4F5805F0AD00FE000
:1009E00029463046FFF7CCFC0AE029463046FFF79F
:1009F0008EFD05E0214601232846726800F0BEF80E
:100A0000B8F1000F04D0B1892846B268FFF7BCFBEB
:100A1000012F18BFBDE8F08100EE104AB7EE001AB2
:100A2000002CF8EE400A81EE200A08BFBDE8F081F4
:100A3000A5F1080014F0010F0ED0D0ED020A60EE0F
:100A4000800AC0ED020AD0ED030AF1EE600A60EE02
:100A5000800AC0ED030A0830610808BFBDE8F081D4
:100A6000D0ED020A60EE800AC0ED020AD0ED030A62
:100A7000F1EE600A60EE800AC0ED030AD0ED040AD0
:100A800060EE800AC0ED040AD0ED050AF1EE600ABE
:100A900060EE800AC0ED050A1030491EE0D1BDE8C5
:100AA000F081000070B44FF0000CB0EC010A4E1E53
:100AB0006446B50832D000BFD0ED000A90ED011AAF
:100AC0000830B4EEE00AF1EE10FA3CBFB0EE600A76
:100AD0000CF10104B4EEC10AF1EE10FA3CBFB0EE25
:100AE000410A0CF10204D0ED000A90ED011A083021
:100AF000B4EEE00AF1EE10FA3CBFB0EE600A0CF181
:100B00000304B4EEC10AF1EE10FA3CBFB0EE410AA4
:100B10000CF104046D1E0CF1040CCDD116F0030C85
:100B200018D0BCF1004F1AD2BCF1000FC4BF002591
:100B300066460FDDD0ED000AF4EEC00AF1EE10FAC1
:100B400004DD4C19B0EE600AA4EB0C04001D6D1C12
:100B5000761EEFD182ED000A1C6070BC7047F0EC8D
:100B6000010AB4EEE00AF1EE10FA3CBFB0EE600A02
:100B7000A1EB0C04BCF1010CF1D1EBE72DE9FF4F27
:100B80002DED108B82B09FEDFEFA0B461C46DB0864
:100B90004FF0000C0CEB030505EB030808EB030911
:100BA00009EB030606EB030A00EBCC0700EBC606D5
:100BB00097ED001AD6ED000A0AEB030B00EBC50512
:100BC00000EBCA0A31EE200A71EE601A95ED002A98
:100BD000DAED000A0BEB030E00EBC80832EE201A28
:100BE00000EBCB0B32EE602AD8ED002ADBED000AD9
:100BF00000EBC90900EBCE0E99ED003A9EED004ADC
:100C000072EEA03A72EEE02A73EE040A33EE443A32
:100C100070EE636A70EE233A31EE600A71EE200ADC
:100C200033EEA01A73EEE00A87ED001AC6ED000A53
:100C300097ED011AD6ED010AD5ED013A98ED014A7A
:100C400031EE206A71EE600A9AED011A99ED015AAF
:100C500073EE814A73EEC13A9BED011A34EE017ACC
:100C600034EE411A9EED014A75EE045A35EE444ABF
:100C700036EE475A36EE076A34EEE57A74EEA54A48
:100C800076EE245A76EE644AC7ED015AC6ED014A63
:100C900076EE874AC8ED004A76EEC74ACBED004AA9
:100CA00075EE404A35EE000AC8ED014A8BED010AA7
:100CB00032EE430A32EE032A20EE0F0A62EE0F4AAA
:100CC00033EEC42AA4448C4522EE0F3A33EE842A34
:100CD00030EEC34A62EE0F3A30EE833A31EEC02A6C
:100CE00031EE800A71EE630A31EE231A72EEE41AD5
:100CF00072EEA42A70EE013A30EE410AC5ED003AD8
:100D00008EED000A32EE200A8AED000A32EE600A09
:100D100089ED000A33EE620A85ED010A33EE220AFC
:100D20008EED010A34EE610A8AED010A34EE210AE1
:100D300089ED010AFFF42EAF082B3FBF02B0BDECD6
:100D4000108B04B0BDE8F08F4FF0000CCDF804C05C
:100D50004FF0010CCDF800C0DDF804C0159DAC4487
:100D60004FEA8C0505EB0C07CDF804C007EB0C0926
:100D70004FEA4C0808EB0C0609EB0C0A02EBCC0C12
:100D800002EBC80802EBC60602EBC50502EBC7077B
:100D900002EBC90902EBCA0A9CED00DA9CED018A5C
:100DA000D8ED00CA96ED00CAD5ED00BA97ED00BAAD
:100DB000D9ED00AADAED008AD8ED017A96ED01AA04
:100DC00095ED017AD7ED016A99ED016ADAED019AA4
:100DD000DDF800C00CEB0307FD1805EB030A0AEB76
:100DE000030808EB030606EB030B00EBCC0900EB52
:100DF000C808D9ED000A98ED000A00EBC70700EB20
:100E0000C606D7ED001A96ED001A70EE803A0BEB8D
:100E1000030E70EEC00A31EE810A00EBC50500EB4F
:100E2000CB0B31EEC11AD5ED001A9BED002A00EB79
:100E3000CA0A00EBCE0E31EE824A71EEC21A9AED6A
:100E4000002ADEED002A32EE223A32EE622A73EEFA
:100E5000C42A73EE843A30EE435A30EE030A33EE7E
:100E6000803A73EEC0DA89ED003A99ED010A98ED07
:100E7000013AD7ED013A95ED014A70EE03EA30EE02
:100E8000433A96ED010A9AED01EADEED014A33EEAE
:100E9000809A73EEC03A9BED010A74EE005A34EE6C
:100EA000404A3EEE240A7EEE644A3EEEE5EA7EEEDD
:100EB000A55A79EE40EA39EE009A32EEAE0A72EEA9
:100EC000EE2A75EE89EA35EEC99A7EEE455AC9EDED
:100ED00001EA3EEE055A2BEEADEA67EE09EA2BEE8B
:100EE000899A67EE2DDA3EEE2EEA39EE6D9A88ED9C
:100EF00000EA67EEA5DA88ED019A2CEE809A6CEE96
:100F0000A55A27EE800A39EE2D9A35EEC00A85EDF6
:100F1000009A66EE055A85ED010A2AEEA20A2AEE2B
:100F2000855A66EE222A30EE250A8BED000A35EE50
:100F3000620A73EEA42A8BED010A31EE420A31EE09
:100F4000021A33EEE42A62EE8F3A20EE0F0A21EE07
:100F50000F1A22EE0F2A70EEC02A30EE800A71EED0
:100F6000C10A71EE811A33EE421A33EE022A34EED0
:100F7000633A34EE234A70EE043A30EE444A01E01C
:100F8000F304353F72EE834A72EEC32A32EE613AC1
:100F900032EE210A71EE601A71EE200A2DEE232A3C
:100FA00028EE031A2DEE033A68EE233AA44432EEFB
:100FB000011A28EE842A8C4587ED001A33EE631A55
:100FC00029EE843A87ED011A29EE801A28EE800A6C
:100FD00032EE011A30EE430A26EEA42A8EED001AF4
:100FE0008EED010A2BEE240A26EEA11A6BEE211AD1
:100FF00030EE010A2CEE221A86ED000A31EEC20A0A
:101000006AEE221A86ED010A2AEE200A6CEE200A08
:1010100031EE000A8AED000A30EEE10A8AED010A9B
:10102000FFF4D8AEDDF800C00CF1010CCDF800C023
:1010300063453FF691AEDDF854C04FF6FF7404EA05
:10104000CC0CCDF854C0072B3FF6A0AD02B0BDECE0
:10105000108B04B0BDE8F08F2DE9F05F054600204D
:1010600092469B4688460646814640241BE0284619
:1010700041464746224600F020FA53465A46C01AD7
:10108000914110D311461846224600F007FA2D1A56
:1010900067EB01084F4622460120002100F0FEF9CF
:1010A00017EB00094E41201EA4F10104DFDC484685
:1010B00031462A464346BDE8F09F40EA01039B07BC
:1010C00003D009E008C9121F08C0042AFAD203E0BD
:1010D00011F8013B00F8013B521EF9D27047D2B221
:1010E00001E000F8012B491EFBD270470022F6E711
:1010F00010B513460A4604461946FFF7F0FF20468E
:1011000010BD2DE9FE4F804681EA0300C00F0C465A
:10111000009021F0004123F00045B8EB0200A94106
:1011200005D24046214690461C460B46024623F017
:101130000040104347D0270DC7F30A00C3F30A51FC
:101140000290401A019040286BDAC3F3130040F478
:10115000801B0098924620B10023D2EB030A63EB78
:101160000B0B01985946C0F14002504600F096F929
:1011700006460D4650465946019A00F0AEF910EB6E
:1011800008006141002487EA115284EAE7731A4398
:1011900040D0009A62B3019A012A4FEA075215DC47
:1011A000001B61EB02014FF0004202EA0752CDE959
:1011B0000042001C41F5801132462B4600F0E5F953
:1011C00003B0BDE8F08F40462146F9E7001B61EB14
:1011D0000201001C41F5801300185B412018A2F5A4
:1011E000001747EB030140EAD570B6196D4111E0D5
:1011F0006D084FEA360645EAC0754FEA0752001BF4
:1012000061EB0201001C41F5801149084FEA3000F2
:101210000019514132462B4603B0BDE8F04F00F0B3
:10122000A5B90098012240000023D0EB020263EB35
:10123000E073009821464FEAE074B8EB000061EBE0
:101240000401E9E783F000435BE781F0004158E7E0
:101250002DE9FE4F81EA030404F0004421F000412F
:1012600000944FF0000B23F0004350EA01045ED0DD
:1012700052EA03045BD0C3F30A54C1F30A552C4469
:10128000A4F2F3340194A0FB0254C1F3130141F41E
:101290008011C3F3130343F4801301FB024400FBEA
:1012A000034E840A970A44EA815447EA8357A4FB11
:1012B000076802958D0A05FB07854FEA932C04FB0E
:1012C0000C542705029D4FEA065847EA1637B5EB3E
:1012D00008056EEB070C870E920E47EA811742EA6B
:1012E0008312A7FB0201B6EB0B0164EB00042B0D8C
:1012F00043EA0C335E1844EB1C50DA465146E7FBD8
:101300000201C5F313044FEA0B3343EA14534FEAC7
:101310000432019C43EA0603A4F10C040294009CED
:10132000CDE900B400F031F903B0BDE8F08F002042
:101330000146F9E72DE9F04D81EA030404F0004B82
:1013400021F0004514464FF0000A23F0004150EA16
:10135000050220D054EA01021DD0C5F30A57024607
:10136000C5F31303C1F31300C1F30A5640F480150B
:1013700043F48013A7EB0608101BD64608F2FD388D
:1013800073EB050002D308F1010801E092185B41FC
:10139000B8F1000F03DA00200146BDE8F08D00200F
:1013A0004FF48011064684460EE0171B73EB0507C9
:1013B00005D3121B63EB050306434CEA010C4908F5
:1013C0004FEA300092185B4150EA0107EDD152EA32
:1013D000030012D082EA040083EA0501084305D025
:1013E000101BAB4106D20122002306E000224FF081
:1013F000004302E06FF0010253101AEB06004CEBC1
:10140000085110EB0A0041EB0B01BDE8F04D00F074
:10141000ADB800F0004230F000400AD0C10D01F537
:101420006071C0F3160042EA0151C208400711433F
:10143000704700200146704701F0004330B421F0AE
:10144000004150EA010206D00A0DA2F56072C1F314
:101450001301002A02DC30BC00207047440F44EA2C
:10146000C104C100E01830BC00EBC25000F047B826
:1014700030B50B46014600202022012409E021FA64
:1014800002F59D4205D303FA02F5491B04FA02F561
:101490002844151EA2F10102F1DC30BD202A04DB34
:1014A000203A00FA02F1002070479140C2F1200377
:1014B00020FA03F3194390407047202A04DB203AB6
:1014C00021FA02F00021704721FA02F3D040C2F164
:1014D00020029140084319467047202A06DBCB17AB
:1014E000203A41FA02F043EAE07306E041FA02F3DF
:1014F000D040C2F1200291400843194670470029AC
:10150000A8BF7047401C490008BF20F00100704789
:1015100010B4B0FA80FC00FA0CF050EA010404BFE9
:1015200010BC704749B1CCF1200421FA04F411FA3F
:101530000CF118BF012121430843A3EB0C01CB1D83
:101540004FEA00614FEA102042BF002010BC7047F4
:1015500000EBC35010440029A4BF10BC7047401CCE
:10156000490008BF20F0010010BC704710B5141EE0
:1015700073F1000408DA401C41F1000192185B414C
:101580001A4301D120F0010010BD2DE9F04D924623
:101590009B4611B1B1FA81F202E0B0FA80F220323A
:1015A0009046FFF77BFF04460F4640EA0A0041EAF7
:1015B0000B0153465A46084313D0114653EA010023
:1015C00019D0C8F140025046FFF777FF05460E4696
:1015D000504659464246FFF761FF084305D00120B7
:1015E00004E020463946BDE8F08D0020054346EA78
:1015F000E0762C4337430A986305E40AA0EB080021
:101600000022FD0A44EA47540A3002D50020014670
:10161000E9E7010510196941DDE90845001969414B
:10162000BDE8F04DA2E7C1F30A52C1F3130140F245
:10163000FF3341F480119A4202DA002001467047DC
:1016400040F233439A42A2F2334202DC5242FFF7A5
:1016500034BFFFF723BF000030B5041E71F1000452
:1016600004DB4FF00044404264EB0101141E73F1AF
:10167000000405DB1C464FF00043524263EB0403B9
:10168000994208BF904230BD064C074D06E0E06825
:1016900040F0010394E8070098471034AC42F6D3B9
:1016A000FEF7D6FD9C3E0008BC3E0008FEE77047F2
:1016B00070472DE9F0410446876D00F065F9064654
:1016C00094F835000025022806D08020606584F853
:1016D00034500120BDE8F0812068016821F0160136
:1016E00001602068416921F080014161206C08B9E6
:1016F000A06C20B12068016821F008010160206819
:10170000016821F0010101600CE000F03DF9801B4F
:10171000052807D920206065032084F8350084F867
:101720003450D7E720680068C007EED194F85C1009
:101730003F208840B860012084F8350084F8345098
:101740000020C7E790F83510022903D080214165B9
:1017500001207047052180F835100068016821F0EC
:10176000010101600020704770B5044600F00CF9DB
:101770000546601C02D004480078044400F004F9D7
:10178000401BA042FAD370BD3C0000202DE9F84F69
:10179000DFF8BCA10022012503264FF00F090AF152
:1017A000040BAAF1040E00BF0B6805FA02F42340F3
:1017B000A34270D10F7907F00307012F01D0022F48
:1017C00016D187684FEA420806FA08FC27EA0C0798
:1017D000D1F80CC00CFA08FC4CEA070CC0F808C0A1
:1017E0004768A7430C79C4F3001494403C43446019
:1017F0000C79E443A4070AD0C4684FEA420C06FA05
:101800000CF7BC438F6807FA0CF72743C7600C79C5
:1018100004F00304022C12D1D40800EB840CDCF891
:1018200020405707FF0E09FA07F824EA0804D1F808
:10183000108008FA07F848EA0408CCF82080046809
:101840004FEA420C06FA0CF7BC430F7907F0030786
:1018500007FA0CF7274307604C6814F4403F70D038
:101860003C4C276847F480472760246822F0030730
:1018700004F480440094384C07EB040CDCF808486E
:1018800097074FEA177809FA08F7BC43334FB84275
:1018900002D1002724E054E0314FB84201D10127A2
:1018A0001EE0304FB84201D1022719E02E4FB84256
:1018B00001D1032714E02D4FB84201D104270FE0D6
:1018C0002B4FB84201D105270AE02A4FB84201D177
:1018D000062705E0284FB84201D1072700E0082776
:1018E00007FA08F72743CCF80878DAF8004057469B
:1018F000D1F804C09C435FEACC2C00D51C433C606B
:10190000DBF800405F46D1F804C09C435FEA8C2CB2
:1019100000D51C433C60DEF800407746D1F804C097
:101920009C435FEA8C3C00D51C433C60084F083F59
:101930003C68D1F804C09C435FEACC3C00D51C4312
:101940003C60521C102AFFF42FAFBDE8F88F000056
:10195000083C014044380240003001400000024091
:101960000004024000080240000C02400010024047
:101970000014024000180240001C02400AB18161BC
:1019800070470904FBE700000148806870470000C9
:101990003C00002002488168027811448160704751
:1019A0003C0000200B4810B5016841F40071016053
:1019B000016841F480610160016841F48071016057
:1019C000032000F06FF8002000F006F800F024F883
:1019D000002010BD003C024070B50D4D04464FF490
:1019E0007A712878B1FBF0F00A490968B1FBF0F090
:1019F00000F00AFB48B9102C07D200222146501EE5
:101A000000F030F800206C6070BD012070BD000057
:101A10003C000020000000200A4808B5016841F49D
:101A200080410160006800F4804000900548001F7C
:101A3000016841F080510160006800F08050009022
:101A400008BD000044380240002809DB00F01F02F6
:101A5000012191404009800000F1E020C0F8001110
:101A600070470000F0B40E4B1B680C46C3F3022312
:101A7000C3F10705042D00D90425191D072901D23A
:101A8000002300E0DB1E012606FA05F1491E214075
:101A900099409E40761E16403143F0BC01F02CBAAE
:101AA0000CED00E0064900F0070208684FF6FF035E
:101AB000184040EA0220034A1043086070470000C3
:101AC0000CED00E00000FA052DE9F0470E46050098
:101AD00065D0DFF81481D8F80000F7B200F00700F5
:101AE000B04207D288F80070D8F8000000F0070074
:101AF000B04254D128683D4C810712D5400703D528
:101B0000206840F4E05020602878000703D5206862
:101B100040F4604020602068A96820F0F00008438D
:101B200020602878C0072DD030496868083901281E
:101B300012D0022813D0032811D009688907002980
:101B40002DDA216821F0030101432160FFF71CFF1A
:101B5000814641F2883A0EE009688903EFE7096897
:101B60008901ECE7FFF710FFA0EB0901514502D90D
:101B70000320BDE8F0872068696800F00C00B0EB36
:101B8000810FEFD1D8F80010404601F00701B142B3
:101B900007D90770006800F00700B04201D00120AB
:101BA000E7E72878400705D52068E96820F4E05089
:101BB000084320602878000706D52068296920F4AA
:101BC000604040EAC100206000F038F82168084A0F
:101BD000C1F30311515CC84006490860064800681B
:101BE000FFF7FAFE0020C4E7003C0240083802403C
:101BF000043C000800000020400000200448054983
:101C000000680968044AC1F38221515CC8407047EA
:101C10000000002008380240143C00080448054930
:101C200000680968044AC1F34231515CC8407047FA
:101C30000000002008380240143C0008154810B588
:101C4000006810F00C02144813D04110042A0FD081
:101C5000082A0ED10F4C241F2268236802F03F028D
:101C60005B0207D52068C0F38810A0FB010106E0E5
:101C7000084610BD2168C1F38811A1FB00010023B3
:101C8000FFF7EAF92168C1F30141491C4900B0FBA3
:101C9000F1F010BD083802400024F4002DE9F84F9F
:101CA00004006ED02078DFF84C93C007A9F104053A
:101CB0004AD009F104000168C1F38101012908D06B
:101CC0000068C0F3810002280AD1D9F80000400260
:101CD00006D52868800337D560680028E1D033E056
:101CE0006068B0F5803F10D0B0F5A02F286810D004
:101CF00020F480302860286820F480202860606804
:101D0000A8B1FFF741FE06460DE0286840F4803098
:101D1000F4E740F480202860F7E700BFFFF734FEC7
:101D2000801B642873D828688003F7D50CE0FFF780
:101D30002BFE064605E000BFFFF726FE801B642849
:101D4000F0D828688003F7D42078DFF8AC828007C9
:101D50004FF0000A3ED5A748001D016811F00C0F96
:101D600008D00068C0F3810002280BD1D9F8000028
:101D7000400207D42868800716D5E068012800D102
:101D800012E033E1E068B8B10120C8F80000FFF7C5
:101D9000FBFD064605E000BFFFF7F6FD801B0228AD
:101DA000C0D828688007F7D52868216920F0F80096
:101DB00040EAC10028600DE0C8F800A0FFF7E4FD8C
:101DC000064604E0FFF7E0FD801B02281FD82868C4
:101DD0008007F7D42078000722D5864F87486169AD
:101DE000703771B101210160FFF7CEFD064604E0B6
:101DF000FFF7CAFD801B022809D838688007F7D58D
:101E00000EE0C0F800A0FFF7BFFD064605E082E047
:101E1000FFF7BAFD801B02287DD838688007F7D409
:101E20002078400768D5DFF8CCB100270BF13C0BD8
:101E3000DBF80000C0000BD4DBF8001041F080514B
:101E4000CBF80010DBF80000012700F08050009074
:101E50006B4E3068C00510D4306840F4807030603C
:101E6000FFF792FD009005E0FFF78EFD0099401A04
:101E7000022850D83068C005F6D55E4EA0686C3692
:101E800001280FD00528306810D020F00100306004
:101E9000306820F004003060A068B8B1FFF774FD2E
:101EA00000900FE0306840F00100F4E740F00400DB
:101EB0003060F7E7FFF768FD0099411A41F288307A
:101EC000814266D830688007F4D50EE0FFF75CFDEC
:101ED000009007E0FFF758FD0099411A41F2883061
:101EE000814256D830688007F4D42FB1DBF8001057
:101EF00021F08051CBF80010A069C8B33D49091DFD
:101F00000968C1F3810102294AD00228504607D04E
:101F1000C8F8600000E03CE0FFF736FD04463BE017
:101F20004746C8F86000FFF72FFD064605E000BFF2
:101F3000FFF72AFD801B02282BD828688001F7D4E0
:101F4000D4E907010843A16A2E4A490802EB01417E
:101F5000626A41EA8211084394F82C1040EA016158
:101F6000C9F8001001203866FFF70EFD044606E0B0
:101F70003EE000BFFFF708FD001B022809D82868D3
:101F80008001F7D534E000BFFFF7FEFC001B0228FC
:101F900002D90320BDE8F88F28688001F4D427E037
:101FA0000128F7D0D9F80000E26900F480019142DD
:101FB0001CD1226A00F03F01914217D147F6C0714F
:101FC000626A0140B1EB821F10D1A26A4FF0FF3369
:101FD00000F4403103EB5202B1EB024F06D194F80A
:101FE0002C1000F07060B0EB016F01D00120D1E740
:101FF0000020CFE70438024000004742800E4742ED
:10200000007000400000FFFF10B5401EB0F1807F5F
:1020100001D3012010BD4FF0E02460610F21601753
:1020200000F06AFF0020A06107202061002010BDA1
:102030007047704770B590F83C20012A32D00124D7
:1020400080F83C40022280F83D2003685A689D6871
:1020500022F070060A6832435A60134B02689A42B3
:1020600014D0B2F1804F11D0104B9A420ED0104BC9
:102070009A420BD00F4B9A4208D00F4B9A4205D090
:102080000E4B9A4202D00E4B9A4204D1496825F079
:1020900080031943916080F83D40002180F83C1096
:1020A000084670BD022070BD0000014000040040E1
:1020B00000080040000C00400004014000400140C6
:1020C0000018004010B5040003D094F83D0010B192
:1020D00007E0012010BD002084F83C00204600F0FD
:1020E0001FF8022084F83D00211D206800F002FD49
:1020F000012084F8460084F83E0084F83F0084F80C
:10210000400084F8410084F8420084F8430084F8D9
:10211000440084F8450084F83D00002010BD000014
:1021200008B5154A0168154891420ED1016841F081
:10213000020101600068002200F0020000901146D8
:102140001D20FFF78FFC1D2010E00D4A914211D198
:10215000016841F0040101600068002200F0040001
:10216000009011461E20FFF77DFC1E20BDE80840B0
:10217000FFF76ABC08BD0000000400404038024080
:102180000008004090F83D10012901D0012070475F
:10219000022180F83D100168CA6842F00102CA605D
:1021A00000681149884214D0B0F1804F11D00F4916
:1021B00088420ED00E4988420BD00E49884208D082
:1021C0000D49884205D00D49884202D00C49884209
:1021D00004D1816801F00701062903D0016841F0AC
:1021E0000101016000207047000001400004004030
:1021F00000080040000C0040000401400040014085
:102200000018004070B5044690F83C0000250128F5
:1022100017D0012684F83C60022084F83D00206835
:10222000826822F0770222F47F4282600868502898
:1022300038D00DDC20284FD005DC90B3102811D108
:102240004AE0022070BD302846D040280AD13BE049
:1022500060282FD070280DD0B0F5805F03D0B0F586
:10226000005F12D0012584F83D60002084F83C0016
:10227000284670BDCB68D1E90121206800F09EFCA2
:102280002068816841F0770109E0CB68D1E901213C
:10229000206800F093FC2068816841F480418160EF
:1022A000E1E719E0CA684968206800F099FC50210C
:1022B000206806E0CA684968206800F0A2FC602136
:1022C000206800F085FCCEE7CA684968206800F005
:1022D00087FC40212068F4E7226801461046F0E7B9
:1022E000704770B50446006801694FF00005C943A6
:1022F000890715D4C168C943890711D4E91E016152
:1023000001202077206880698007204602D0FFF7EF
:10231000E7FF04E000F098F8204600F096F82577F3
:1023200020680169C943490717D4C168C9434907EF
:1023300013D46FF0040101610220207720688069C6
:1023400010F4407F204602D0FFF7CAFF04E000F0FF
:102350007BF8204600F079F8257720680169C943A9
:10236000090716D4C168C943090712D46FF00801E0
:102370000161042020772068C0698007204602D0D0
:10238000FFF7AEFF04E000F05FF8204600F05DF8D4
:10239000257720680169C943C90617D4C168C943B4
:1023A000C90613D46FF0100101610820207720685E
:1023B000C06910F4407F204602D0FFF791FF04E08F
:1023C00000F042F8204600F040F8257720680169C7
:1023D000C943C90708D1C168C943C90704D1891EC7
:1023E0000161204600F032F820680169C9430906FE
:1023F00009D4C168C943090605D46FF080010161A1
:102400002046FFF715FE20680169C943490609D433
:10241000C168C943490605D46FF0400101612046F7
:1024200000F01CF820680169C94389060BD4C16813
:10243000C943890607D46FF0200101612046BDE839
:102440007040FFF7F6BD70BD704770470249884283
:1024500001D101F0B7B97047940000207047704770
:1024600070470000F8B5016804460868CA684B69FF
:1024700010F00F0F4FF0000559D003F0010602F4E1
:102480009077374365D0C10705D0D10503D5216CBE
:1024900041F001012164410705D5D90703D0216C22
:1024A00041F002012164810705D5D90703D0216CD1
:1024B00041F004012164010707D502F020013143F6
:1024C00003D0216C41F008012164216C00293AD02D
:1024D000800604D5900602D5204600F0D3FB206884
:1024E0004069216CC0F38010090700D460B3204616
:1024F00000F0A1FB20684069400621D52068143017
:1025000050E8001F21F0400140E80012002AF5D1F8
:10251000A06BA8B16C490165A06BFFF713F9002807
:1025200011D0A06B016D01B0BDE8F04008478306F3
:102530000FD593060DD52046BDE8F84000F0A2BBAC
:102540002046FFF78DFFF8BD2046FFF789FF256481
:10255000F8BD266B2023012E79D1C60677D5D60685
:1025600075D50868486800904869400640D5A16B59
:10257000086840680004000CEAD0A28D8242E7D9C6
:10258000E085C869B0F5807F2DD020680C3050E818
:10259000001F21F4807140E80012002AF5D1206864
:1025A000143050E8001F21F0010140E80012002A19
:1025B000F5D12068143050E8001F21F0400140E8B8
:1025C0000012002AF5D184F83E30256320680C30D3
:1025D00050E8001F21F0100140E80012002AF5D158
:1025E000A06BFFF766F8A08DE18D401A81B229E05B
:1025F000A08DE18D401A81B2E08D0028A8D000297D
:10260000A6D020680C3050E8002F22F4907240E8E9
:102610000026002EF5D12068143050E8002F22F05B
:10262000010240E80026002EF5D184F83E302563F3
:1026300020680C3050E8002F22F0100240E8002300
:10264000002BF5D12046FFF70AFFF8BDFFE705068E
:102650002BD5150629D594F83D002128F5D1A06881
:10266000B0F5805F01D12069B0B1206A411C2162C0
:10267000216800784860E08C401E0004000CE08473
:10268000E3D12068C16821F08001C1602068C16881
:1026900041F04001C160D8E7206A0088C0F308001B
:1026A0004860206A801C2062E5E74006CDD55006D0
:1026B000CBD5CA68204622F04002CA6084F83D307B
:1026C00000F0CFF8C1E70000272C000870B5040027
:1026D00004D094F83D00002510B106E0012070BD43
:1026E00084F83C50204600F023F8242084F83D0074
:1026F0002068C16821F40051C160204600F022FB2F
:102700002068016921F4904101612068416921F04C
:102710002A0141612068C16841F40051C16025640B
:10272000202084F83D0084F83E00002070BD0000A9
:1027300010B586B0044614216846FEF7D7FC184948
:102740002068884229D117480021026842F010020F
:102750000260006800F0100005901248143802680A
:1027600042F001020260006800F0010005904FF4A1
:10277000C06000900220CDE90101032003900720F2
:10278000049069460848FFF701F800221146252009
:10279000FFF768F92520FFF757F906B010BD0000D4
:1027A0000010014044380240000002407047000021
:1027B0002DE9F843044690F83D001F4616460D46A5
:1027C00020284CD1C5B1BEB194F83C00012846D0B8
:1027D000012084F83C004FF00008C4F8408021201C
:1027E00084F83D00FFF7D0F8A6848146E684A0680F
:1027F000B0F5805F03D004E00120BDE8F8832069D4
:1028000028B12E465FF0000584F83C800EE00026DB
:10281000FAE78021204600F01BFBA0B9AEB116F804
:10282000010B21684860E08C401EE084E08C4B4640
:102830004FF0000200970028EBD14FF040012046F6
:1028400000F006FB30B10320D7E735F8020BC0F3E8
:102850000800E6E7202084F83D000020CDE70220B4
:10286000CBE77047FEE700002DE9F04387B0142165
:102870006846FEF73BFC28480024016841F004014B
:102880000160016801F004010591016841F08001D7
:102890000160016801F080010591016841F00101CA
:1028A0000160016801F001010591016841F04001FA
:1028B00001600068DFF8648000F0400041F6704578
:1028C0000590002229464046FFF758F8DFF850905F
:1028D0004FF42057002239464846FFF74FF80126AB
:1028E000CDE90056022569464046CDE90245FEF78E
:1028F0004DFFCDE9007669464846CDE90245FEF731
:1029000045FFE8028DE8310069464846FEF73EFF84
:1029100007B0BDE8F08300003038024000080240F4
:102920000018024010B586B000240094019402946F
:10293000039404940594002833D0642806D84FF4F7
:10294000FA61B1FBF0F14AF20F4207E01649884202
:1029500027D816492922B1FBF0F081B21548491E4B
:10296000134BC0E90241802104618161C0E900325A
:10297000FFF7A8FB08B1FEF79BFE4FF480500090D4
:1029800069460C48FFF73EFC08B1FEF791FE04943F
:1029900004A908480594FFF74DFB002801D0FEF775
:1029A00087FE06B010BD0000400D030080841E00AD
:1029B00000080040940000200C4810B50A4901604E
:1029C0004FF4E1314160002181600C22C160C0E917
:1029D00004128161C161FFF779FE002803D0BDE8D0
:1029E0001040FEF765BE10BD00100140DC00002065
:1029F000FEE7704770470000F0B50C4A00214FF425
:102A00000063084613600A4E4FF6FF741D0400BFB2
:102A100004EA40001560D6F830720FB1401C80B255
:102A20001360491CC9B21029F2D3F0BD1808024046
:102A3000000043427047FEF7ADBF000030B593B0D1
:102A400030216846FEF752FB14210CA8FEF74EFB1E
:102A500019480025016841F080510160006800F0CC
:102A6000805011901548016841F480410160006870
:102A7000022400F480401190012000900004019095
:102A80008001CDE9064008AA0420A82182E81300AD
:102A90000B906846FFF702F90CA90F2081E831007E
:102AA0004FF4A0500F90E002109005210CA8FFF702
:102AB0000BF813B030BD00004038024000700040F9
:102AC0000548016841F47001016003494FF000605E
:102AD000803908607047000088ED00E00148FFF78A
:102AE00000BC00004C0000200148FFF7FABB0000CA
:102AF00094000020F0B50268254C264D264E274F45
:102B0000274B4FF0804CA04209D0604507D0A84227
:102B100005D0B04203D0B84201D0984204D122F08F
:102B2000700E4A6842EA0E02A0421BD0604519D0DE
:102B3000A84217D0B04215D0B84213D0984211D055
:102B4000184DA8420ED0184DA8420BD0174DA842E0
:102B500008D0174DA84205D0164DA84202D0164DF8
:102B6000A84203D122F44075CA682A434D6922F075
:102B700080022A4302608A68C2620A688262A042B6
:102B800001D0984201D10969016301214161F0BD81
:102B9000000001400004004000080040000C00401C
:102BA0000004014000400140004401400048014051
:102BB00000180040001C00400020004010B5846850
:102BC00042EA032224F47F440A432243826010BD78
:102BD000826822F070020A4342F007018160704768
:102BE00010B5036A046A24F001040462846924F0C5
:102BF000F00444EA021423F00A020A4384610262E8
:102C000010BD10B5036A23F0100303628369046AE0
:102C100023F4704343EA023224F0A00343EA011193
:102C20008261016210BD10B5806B0021C185C18435
:102C3000FFF716FC10BD01680C3151E8002F22F49B
:102C4000907241E80023002BF5D10168143151E85E
:102C5000002F22F0010241E80023002BF5D1016B87
:102C6000012909D101680C3151E8002F22F010022E
:102C700041E80023002BF5D1202180F83E100021EF
:102C80000163704708B590F83E10222901D0022058
:102C900008BD82684FF480539A4201D1016921B185
:102CA000816A9A421BD04AB10AE00268816A52687E
:102CB000C2F308020A80816A891C08E0026972B1C5
:102CC0000268526802F07F020A70816A491C8162C0
:102CD000C18D491E0904090CC18503D019E00268A1
:102CE0005268F1E70168CA6822F02002CA600168F0
:102CF000CA6822F48072CA6001684A6922F001023F
:102D00004A61202180F83E10016B012903D0FFF7B2
:102D10004DFD002008BD0021016301680C3151E820
:102D2000002F22F0100241E80023002BF5D10168AA
:102D30000A68D20602D50A6849680091818DFFF7BA
:102D40008EFBE6E770B5044600680169E26821F48D
:102D50004051114301612169A068E269084361693A
:102D6000114308432168CA6849F20C639A4302433D
:102D7000CA6020684169A26921F440711143416130
:102D800031492068884202D03049884202D1FEF79A
:102D900045FF01E0FEF732FFE269002319216425B7
:102DA0003226B2F5004F626828D0A0FB0101930FD4
:102DB0009200FEF751F90146B0FBF5F06FF01802F2
:102DC000504301EB800006EB0010B0FBF5F000F083
:102DD000F002B1FBF5F002EB0012B1FBF5F06FF081
:102DE0001803584301EB800006EB0010B0FBF5F030
:102DF00000F00F0021681044886070BDA0FB010145
:102E000092185B41FEF728F90146B0FBF5F002018C
:102E1000B1FBF5F06FF01803584301EB800006EBAF
:102E2000C000B0FBF5F000F0F80002EB4002B1FB8F
:102E3000F5F0584301EB800006EBC000B0FBF5F065
:102E400000F00700D6E70000001001400014014028
:102E50002DE9F041984617460E460446069D27E0A8
:102E6000681C25D02DB1FEF78FFDA0EB0800A8420D
:102E70001ED920680C3050E8001F21F4D07140E8C2
:102E80000012002AF5D12068143050E8001F21F00C
:102E9000010140E80012002AF5D1202084F83D000D
:102EA00084F83E00002084F83C000320BDE8F08157
:102EB0002068006836EA000004D00020B842CFD075
:102EC0000020F3E70120F9E70148FFF7CBBA000043
:102ED000DC000020FEE700000FB4054B10B503A98D
:102EE000044A029800F0EAF810BC5DF814FB0000F8
:102EF0004D3B0008480000200907090E002804DBAC
:102F000000F1E02080F80014704700F00F0000F19D
:102F1000E02080F8141D704702E008C8121F08C1A5
:102F2000002AFAD170477047002001E001C1121F4A
:102F3000002AFBD1704700002DE9FF5F82B000211D
:102F4000DDE90430020DDDF840B0034318D044F64B
:102F50001050A2F2FF3242431514119801281FD0DD
:102F6000A5EB0B00401C5FEA000A4FF000064E4F35
:102F7000DFF83891B046504615D5CAF1000413E089
:102F8000119801244AA3012801D16FEA0B0102988C
:102F9000119AC0E90031C0E9024206B0BDE8F09FD5
:102FA000CBF10000DFE704460021404A491842EB1C
:102FB0000450CDE9001012E0E00707D032463B464E
:102FC00040464946FEF744F98046894632463B462C
:102FD00010461946FEF73CF906460F466410002CD1
:102FE000EAD1DDE90401DDE90023BAF1000F06DAD8
:102FF000FEF72EF942464B46FEF72AF905E0FEF7AA
:1030000099F942464B46FEF795F904460E460022D2
:10301000284BFEF721FB03D84FF0FF30014607E0B5
:103020000022254B20463146FEF76BF8FEF7FBFAEF
:10303000102409E0002C0ADB0A220023FEF70CF81A
:10304000039B30321A55641E50EA0102F2D1641C0F
:10305000039AC4F111031444119A012A03D00122E6
:1030600008430DD10AE0084304D000204FF0110BB3
:10307000119072E7A3EB0B056D1E0DE05B4504DDBF
:103080004FF0000205F1010504E003DA4FF0000201
:10309000A5F10105002AECD002981199C0E902318E
:1030A000C0E9004579E70000000014400000F03F4F
:1030B000300000000000F0430000E03F2DE9FF4F2A
:1030C00095B09A46884606460025EEE1252877D138
:1030D00000242746F94A0121039400E0044316F82E
:1030E000013F203B01FA03F01042F7D130782A2843
:1030F00011D06FF02F033078A0F13002092A16D8D2
:10310000039A44F0020402EB820203EB42021044F1
:10311000761C0390EFE758F8042B0392002A03DA99
:10312000504244F40054039044F00204761C30787A
:103130002E2816D116F8010F44F004042A280DD0C9
:103140006FF02F023078A0F13003092B09D807EB7C
:10315000870302EB4303C718761CF3E758F8047B98
:10316000761C30786C280FD006DC4C2817D06828E5
:103170000DD06A2814D104E0742810D07A280FD119
:103180000DE044F400140AE044F4801401E044F437
:1031900040147278824202D104F58014761C761CA9
:1031A000307866280BD013DC582877D009DC00284B
:1031B00075D04528F6D04628F4D047281AD193E197
:1031C00018E0632835D0642879D0652812D18BE1C6
:1031D000702873D008DC6728F1D069286FD06E287A
:1031E0000DD06F2806D1ACE073282CD0752874D090
:1031F000782853D05246179990476D1C54E1C4F378
:103200000250022809D003280DD0D8F80010042855
:103210000DD00D6008F1040846E1D8F80010EA1757
:10322000C1E90052F6E7D8F800100D80F2E70D7002
:10323000F0E718F8041B8DF8001000208DF801004D
:10324000EB46012003E058F804BB4FF0FF30610764
:103250004FF0000102D40DE009F101018946B942A5
:103260000FDA8145F8DB1BF809100029F4D108E0DA
:1032700009F1010189468142FADB1BF80910002996
:10328000F6D103985346A0EB090721463846179A12
:1032900000F080FA284400EB090507E044E008E16B
:1032A0000DE01BF8010B524617999047B9F101093F
:1032B000F7D2534621463846179AF2E039E00A2100
:1032C000C4F302524FF0000B0091022A06D058F8C6
:1032D000040BC117032A09D00AE023E008F1070014
:1032E00020F00702F2E80201904605E000B2C117A3
:1032F000042A01D140B2C117002906DA0A4600218A
:10330000404261EB02012D2202E0220504D52B226E
:103310008DF80420012203E0E20701D02022F7E724
:10332000914657E00A2100E010214FF0000B009178
:103330000BE010214FF0000B44F00404082700912B
:1033400003E008204FF0000B0090C4F30252022A61
:1033500005D058F8040B0021032A08D008E008F132
:10336000070020F00702F2E80201904603E080B275
:10337000042A00D1C0B24FF0000922072AD53278C2
:10338000702A07D0DDF800C08CF0100C5CEA0B0C42
:1033900005D00EE040228DF80420012208E050EA1A
:1033A000010306D030238DF804308DF80520022269
:1033B0009146009B83F0080353EA0B030AD150EABD
:1033C000010201D1620705D530228DF804204FF0AB
:1033D00001097F1E3278582A04D039A20C920CAA17
:1033E00002920BE03BA2F9E75B46009AFDF734FE40
:1033F0000C9B9B5C029A521E0292137050EA0102CF
:10340000F2D1029804A9081A00F1200B600702D536
:1034100024F4803400E001275F4502DDA7EB0B00B8
:1034200000E0002000EB0B01009003984944401A93
:103430000390E00306D453462146179A039800F000
:10344000A9F90544002706E001A85246C05D179976
:1034500090476D1C7F1C4F45F6DBE0030CD55346AF
:103460002146179A039800F095F9054404E03020AE
:103470005246179990476D1C0099481E00900029EC
:10348000F5DC08E00298029952460078491C029146
:10349000179990476D1CBBF10001ABF1010BF1DCFA
:1034A0005BE100F065F90544761C307800287FF474
:1034B0000DAE19B02846BDE8F08F000009280100C4
:1034C000303132333435363738396162636465669A
:1034D000000000003031323334353637383941425C
:1034E0004344454600000000600700D4062708F169
:1034F000070020F00700F0E80223804603F0004CAC
:103500005FEA0C0001D097A009E0200501D596A044
:1035100005E0E00701D095A001E0AFF24C00139068
:10352000307823F0004365280CD006DC452809D00C
:1035300046281DD047287FD13BE0662818D0672851
:103540007AD136E00021112F01DB112000E0781C38
:10355000CDE9000104A90CA8FFF7EEFCDDE90D019F
:103560000C9A4FF0000B07F10109109200914EE008
:103570004FF000400097CDE9011004A90CA8FFF717
:10358000DBFCDDE90D020C9B0F994FF0000B91461F
:103590001093009211B9791C00EB0109B7EB0900F7
:1035A00003D4C0F1FF3B07F10109A9EB070001902B
:1035B00042E0012F00DA01270021112F01DD112047
:1035C00000E03846CDE9000104A90CA8FFF7B4FCDF
:1035D000DDE90D010C9A00914FF0000BB9461092F5
:1035E00021070FD4009A4A4503DA914601E0A9F178
:1035F0000109B9F1010F05DD109AA9F10101515C32
:103600003029F4D0B84202DA10F1040F03DA0121B4
:10361000CDE9011010E0002803DC8344A9EB000190
:1036200002E0411C494500DD8946A0EB0B00401C2F
:1036300001904FF000400290200705D401984845C2
:1036400002DB4FF0FF30019000208DF84B00029814
:103650000DF14B07B0F1004F25D002200C902B202C
:103660000D90029800280CDA404202902D200D9017
:1036700007E00A210298FDF7FBFE3031029007F8BF
:10368000011D0C99481E0C900029F2DC02980028BC
:10369000EFD1791E0D980870307800F0200040F0CE
:1036A000450007F8020D11A8C01BC01D0290139819
:1036B000007800B1012000EB0901019801EBE071F5
:1036C000029801440398401A401E0390E00306D478
:1036D00053462146179A039800F05CF80544139866
:1036E000007818B15246179990476D1CE00323D516
:1036F00053462146179A039800F04CF805441BE006
:10370000BBF1000F07DB0098584504DD10981799AE
:1037100010F80B0001E017993020524690470198AD
:103720000BF1010B401E05F10105019004D12E2083
:103730005246179990476D1CB9F10001A9F1010992
:10374000DEDC05E017F8010B5246179990476D1C17
:103750000299481E02900029F4DC53462146179A2C
:1037600003989EE62D0000002B00000020000000C2
:103770002DE9F041044600251E461746880404D46E
:1037800005E039462020B0476D1C641EF9D5284657
:10379000BDE8F0812DE9F041044600251E46904623
:1037A000C80301D5302700E02027880404D505E0B0
:1037B00041463846B0476D1C641EF9D52846BDE821
:1037C000F08100002DE9F0412A4E4FF0805030602A
:1037D0000025294C471400BF00F05CF86188B9420D
:1037E00005D204EB4101C8806088401C60806D1CDC
:1037F000EDB2082DF0D34FF48050306000F086F821
:103800001E4D00212A68E86890421CD2B4F90620B7
:10381000DFED1B0A00EE102A1A4AB8EEC00A02EBCE
:10382000C00200F1010020EE200AF6EE000A20EEB0
:10383000200A82ED000A9FED140A82ED010A6180E0
:10384000E860BDE8F081FCD1E960686B4FF00104ED
:1038500030B10128F5D0BDE8F0410CA0FFF73CBB2A
:1038600008494FF4007201F50070FDF726FC6C6307
:10387000E7E70000180802402001002004000020B3
:103880000000003828110020000000006572726FEF
:1038900072000000FFF7B0B805484FF08062026088
:1038A0000115016001600160016002607047000065
:1038B00018080240F0B54FF4800253101025124949
:1038C00001280FD02026941002280DD003280DD0F7
:1038D000402704280ED0052810D0062811D00A60F1
:1038E0000B6009E00A600AE00A600BE00A600E6003
:1038F0000D60F0BD0F60F3E70C60F0BD0F600B6072
:10390000F6E70F600E60F7E71808024007484FF02F
:1039100000510160016001600160016001600160AF
:10392000016001600914016070470000181802402E
:103930000246084810B50261FFF7E8FF064800217B
:10394000018041801046FEF7EDFFBDE810400348BE
:10395000FEF718BC04000020200100209400002085
:1039600000B50020FFF7A6FFFFF796FF02494FF4CE
:103970000050086000BD0000181802402DE9F04119
:103980002DED088B84B0584C606B01287ED1237AD2
:10399000227956495648FCF7DFFF564953482268BA
:1039A000FCF770FC04F120031A1F52482168FDF750
:1039B00079F800204F4B2268411E03F5807501EB1A
:1039C000520108E003EB800292ED010A05EB800250
:1039D000401C82ED000A8142F4D8434B464828330C
:1039E0001A1FFDF75FF894ED040AA06AF8EE400A8A
:1039F00094ED000A401CF8EE401AB8EE400A80EE42
:103A0000A11A00EE900AF8EE600A61EE209AF6EE36
:103A1000000AC4ED059A60EE200A94ED091A81EEC1
:103A2000200ADFED360A60EE208AC4ED068A18EE21
:103A3000900AFDF7EEFC9FED321B53EC112BFDF7C6
:103A400079FCFDF7F9FC09EE100AB2EE000A84EDEC
:103A50000B9A39EE408A18EE100AFDF7DAFC9FED5A
:103A60002ABB53EC1B2BFDF765FC9FED291B53EC88
:103A7000112BFDF7EAFB41EC1A0B18EE100AFDF7CB
:103A8000C8FC53EC1B2BFDF755FC00E027E053EC82
:103A90001A2BFDF74FFC9FED201B53EC112BFDF76C
:103AA000D7FBFDF7C9FC206319EE100AFDF7B1FC46
:103AB0000746884618EE900AFDF7ABFC05460E4611
:103AC00019EE900AFDF7A5FC8DE8E00141EC100B22
:103AD00013A053EC102BFFF7FFF90020606304B034
:103AE000BDEC088BBDE8F081040000202813002005
:103AF0001C3C0008281500202816002000401C4609
:103B0000B5FCC0559EA0F63F6666666666A6454053
:103B100000000000000010400000000000409F4036
:103B2000C6B5C2CA203D202566200D0AD5F1B7F9D9
:103B3000203D20256620200D0AD3D0D0A7D6B52061
:103B40003D20256620200D0A2000000013B56423C7
:103B5000012269460248FEF72BFE00981CBD0000BA
:103B6000DC0000202DED048BFDF71CFFFFF7F8FEB5
:103B7000FEF764FFFEF778FEFEF71EFF18494FF0D0
:103B8000006008604FF47A40FFF7D2FE154C9FEDBD
:103B9000168ADFED168AB6EE009A4FF47A7500BFEA
:103BA000B4F9080000EE100AB8EEC00A20EE080AC8
:103BB00020EE280A20EE090A10EE100AFDF729FC73
:103BC00041EC100B0AA053EC102BFFF785F9FFF71F
:103BD000D5FE0BA0FFF780F92846FDF7C5FDDFE70E
:103BE000181802402001002000401C460000003848
:103BF00041494E31203D202566206D560D0A0000BA
:103C00000A000000000000000000000001020304A0
:103C1000060708090000000001020304400000003C
:103C20002C3C00082C3E0008380000000000803FBB
:103C3000000000006DC47E3F36BDC83DBE147B3F12
:103C4000C2C5473E0BFA743F31A0943E5E836C3F81
:103C500015EFC33E98C5613FEA5AF13E31DB543F50
:103C6000DA390E3F03E4453F9967223FF304353FBD
:103C7000F304353F9967223F03E4453FDA390E3FAD
:103C800031DB543FEA5AF13E98C5613F15EFC33E20
:103C90005E836C3F31A0943E0BFA743FC2C5473E31
:103CA000BE147B3F36BDC83D6DC47E3F00000000A2
:103CB0000000803F36BDC8BD6DC47E3FC2C547BE53
:103CC000BE147B3F31A094BE0BFA743F15EFC3BE08
:103CD0005E836C3FEA5AF1BE98C5613FDA390EBF88
:103CE00031DB543F996722BF03E4453FF30435BFFE
:103CF000F304353F03E445BF9967223F31DB54BFEE
:103D0000DA390E3F98C561BFEA5AF13E5E836CBF57
:103D100015EFC33E0BFA74BF31A0943EBE147BBFB7
:103D2000C2C5473E6DC47EBF36BDC83D000080BFE2
:103D3000000000006DC47EBF36BDC8BDBE147BBF91
:103D4000C2C547BE0BFA74BF31A094BE5E836CBF80
:103D500015EFC3BE98C561BFEA5AF1BE31DB54BF4F
:103D6000DA390EBF03E445BF996722BFF30435BFBC
:103D7000F30435BF996722BF03E445BFDA390EBFAC
:103D800031DB54BFEA5AF1BE98C561BF15EFC3BE1F
:103D90005E836CBF31A094BE0BFA74BFC2C547BE30
:103DA000BE147BBF36BDC8BD6DC47EBF00000080A1
:103DB000000080BF36BDC83D6DC47EBFC2C5473E52
:103DC000BE147BBF31A0943E0BFA74BF15EFC33E07
:103DD0005E836CBFEA5AF13E98C561BFDA390E3F87
:103DE00031DB54BF9967223F03E445BFF304353FFD
:103DF000F30435BF03E4453F996722BF31DB543FED
:103E0000DA390EBF98C5613FEA5AF1BE5E836C3F56
:103E100015EFC3BE0BFA743F31A094BEBE147B3FB6
:103E2000C2C547BE6DC47E3F36BDC8BD0800400058
:103E3000100080001800C000200000012800400190
:103E4000300080013800C001500088005800C800D0
:103E50006000080168004801700088017800C8010E
:103E60009800D000A0001001A8005001B0009001FF
:103E7000B800D001E0001801E8005801F0009801F6
:103E8000F800D801280160013001A0013801E001EB
:103E90007001A8017801E801B801F001BC3E0008FA
:103EA000000000204C000000182F0008083F000808
:103EB0004C0000205C1A0000282F00080024F400A9
:103EC00040000000000000000100000000000000B1
:103ED00000000000000000000000000000000000E2
:103EE00000000000000000000000000000000000D2
:103EF00000000000000000000100000010000000B1
:083F00000000000000000000B9
:0400000508000249A4
:00000001FF
